:020000040000FA
:10000000D7EF07F01200FFFF04EF08F01200FFFF28
:10001000FFFFFFFFFFFFFFFF0CEF08F01200FFFFE5
:100020000100CC0F0000AC03000002000000F00E45
:100030008B1694160001636B676968696969666B62
:10004000010E6A6F1200D9CFE6FFE1CFD9FFE65269
:10005000000163511FE1040108BF5BD1400EE66E51
:10006000600EE66E030EE66EF4EC05F0E552E55226
:10007000E5520001010E636FDF6A400EDF5C01E3B1
:1000800048D1DF50EA6AAB0FE96E000EEA22EF6A50
:10009000DF2AF3D703016051080A01E139D10F0AC1
:1000A00001E1EDD0010A01E1E4D0030A01E194D0BD
:1000B000010A4BE0070A3FE0010A01E02AD10001F2
:1000C000020EAB6F3A0EAC6F010EAD6FAE6FAF6B41
:1000D000100EB06FB16BB26BB36B700EB46FB56BCB
:1000E000B66B030EB76FB86BB96B300EBA6FBB6BE4
:1000F0000E0EBC6FBD6BBE6BBF6B010EC06FC16BD4
:10010000C26B200EC36FC46B080EC56FC66BC76B86
:10011000C86BC969020EC96FCA6BCB6BF00ECC6F8E
:10012000CD6BCE6B010ECF6FD06BD16BD26904015A
:100130000CBFEFD0DFD00001010E6A6F03016151E7
:1001400001E0E3D000016A6BE0D0400E0001646F73
:10015000656B000E645D020E65591FE2B4D964C080
:1001600000F065C001F0026A060E1F0B64C0F6FFC6
:1001700065C0F7FF02C0F8FF06E0D890F636F73604
:10018000F836E806FAE1940EA66EAAD94EEC06F00F
:100190000001642B000E6523DCD7DF6ADF50A96EF7
:1001A000A868040EA66E4EEC06F09AD9DF50DF2A3E
:1001B000006E016A026AFF0E005C000E0158000E1C
:1001C0000258ECE3F66AF76A200EF86E940EA66EFB
:1001D000B50EE66E5ED998D0300E635D06E1000183
:1001E0006A5101E092D014D990D0F00E635D02E123
:1001F00035D98BD0E868000167190CE1E868681907
:1002000009E1E868691906E161C367F062C368F053
:1002100063C369F0670EE96E000EEA6EEE500301EB
:10022000611973E1EE50621970E1EE5063196DE1EE
:100230006CE1DF6A03016551DF5C67E23A0ED8804A
:100240006555DF2452D9E66E00016651EA6A6B0FEC
:10025000E96E000EEA22E552E750EF6E662B672B3F
:10026000000E68236923200E665D01E16DD8DF2A48
:10027000E1D76AD8000167696869696947D00001F8
:10028000070EAB6F61C3ACF062C3ADF063C3AEF0F9
:1002900064C3AFF065C3B0F061C3F6FF62C3F7FF9C
:1002A00063C3F8FFDF6A03016551DF5C20E2F00EF3
:1002B000635D0AE1DF506125A96EA66AA6803A0E49
:1002C00006D9A8CFEFFF11D000D9300EF85C08E1B5
:1002D000050EF65C01E1F568080EF65C01E1F568D3
:1002E0003A0E0301F4D8F5CFEFFFDF2ADCD7040183
:1002F0000CBF0FD0400EE66EAB0EE66E000EE66E43
:10030000C4EC05F0E552E552E5520001636B01D003
:1003100005D8E552E552E7CFD9FF12006D926D6A1C
:100320000001EB6BFF0E0001EB5D0AE2E868E850AC
:1003300004E0E80600D000D0FAD70001EB2BF2D79A
:10034000FF000000000012000001ED6B66C000F02D
:10035000016A026A00500001675DF66E01500001FB
:100360006859F76E025000016959F86E1F0EF614B5
:100370000001EE6FE00EF6160001EC6B200E00019E
:10038000EC5D1FE20001EE5115E1000166510FE046
:100390000001ED51EA6A6B0FE96E000EEA22EF50A0
:1003A000F56E0D000001ED2B0001660702D0F56827
:1003B0000D0004D0F5680D000001EE070001EC2BE4
:1003C000DDD70A00A40EA66EB50EE66E62D8E55221
:1003D0000001EC6B000166510001EC5D18E20001C8
:1003E000ED510001EC25EA6A6B0FE96E000EEA227E
:1003F000EF50E66E0001EC51EA6A6B0FE96E000EF9
:10040000EA22E552E750EF6E0001EC2BE3D7120031
:1004100061C3F6FF62C3F7FF63C3F8FF0001EF6B30
:10042000030165510001EF5D18E23A0E0301D88027
:1004300065550001EF25EA6A660FE96E030EEA22B0
:10044000EF50F56E0C00C40EA66EB50EE66E21D808
:10045000E55209000001EF2BE3D712000001F06B19
:10046000030165510001F05D13E2030161510001D8
:10047000F025A96E3A0E0301D88065550001F025DC
:1004800034D8A86E040EA66E2BD80001F02BE8D746
:100490001200D9CFE6FFE1CFD9FFF29EFE0EDB506E
:1004A000B50805E0030ED36E0300FED7FF00550E1E
:1004B000A76EAA0EA76EA682A6B2FED7A694E55294
:1004C000E7CFD9FF12000400120009001200D88003
:1004D0006555DF24EA6AB10FE96E000EEA221200C8
:1004E000B50EE66ED6DFE5521200EA6A660FE96ED7
:1004F000030EEA22EF5012007AD9E6526C5032E134
:100500006896040100513C0BE842E8420D0828E1DE
:10051000180E021923E1040E031920E1100E026FD8
:10052000040E036FDF6ADF50006E016A080E005C84
:10053000000E015813E2DF50EA6A180FE96E040E4C
:10054000EA22EF50E66EDF50EA6A100FE96E040E01
:10055000EA22E552E750EF6EDF2AE5D70ED80AD03F
:100560003FD808D0040E6C5C03E1689650D802D0E6
:10057000000E01D0010EE5523FD139D9E6520401F7
:1005800004BF046B0301A86BA06BA16BA66BA76BE8
:1005900008EC04F0DF6ADF50006E016A010E005CB7
:1005A000000E01581AE20301A15117E1F76ADF3486
:1005B000FE0BF736F66E6A0EF6260E0EF7220900CF
:1005C000F5CF00F00800F5CF01F004D001C0FAFF2C
:1005D0000050F96EFBDFDF2ADED7B4D8E5520CD12C
:1005E000020E0301A05D0EE181D80401180E026F16
:1005F000040E036F080E016F00BD02D0C80E05D0B7
:10060000880E03D0D8D8E4D88C0E006F1200040EE8
:100610000001FB5D09E112C46EFF6E50000802E2AA
:10062000050E01D0030EFB6F0301A00510E111D8E8
:10063000020E0301A85D03E10401840E06D004014B
:1006400004BD02D0C80E01D0880E046F1200DBEF8B
:1006500003F0CDD8020EE1260301080EA65D000EC0
:10066000A7590DE2A6C3DEFFA7C3DDFFA85102E133
:10067000010E03D0A80506E1020EA86F03D0080EF4
:10068000DE6EDD6A040104930491010EDB50041355
:10069000DFCF05F4000EDB500301A65F010EDB5037
:1006A000A75B180EA46F040EA56F0001FCA30CD06D
:1006B00097D815E0A2C3F6FFA3C3F7FF0800F550D3
:1006C0007FD8F6E2DB06F4D78BD809E0A2C3E9FFB6
:1006D000A3C3EAFFEF5074D8F7E2DB06F5D7020EAA
:1006E000E15C02E2E16AE552E16E86D080D8020E5A
:1006F000E126030E04010015E76E010EE7CFDBFFD4
:1007000001C4DFFFDE500301A627DD50A723180E2A
:10071000A26F040EA36F64D80EE0A2C3E9FFA3C3C7
:10072000EAFFEF50A4C3E9FFA5C3EAFFEF6E68D864
:10073000F2E2DB06F0D7020EE15C02E2E16AE5528A
:10074000E16E5AD06D980301A15105E141D8840EA4
:10075000006F04011DD0040110AF1CD00301A6518D
:100760000401165D0301A7510401175904E216C4E0
:10077000A6F317C4A7F36DDF0301010EA06F28D8FD
:10078000800E006F0401180E066F040E076FC80E6E
:10079000046F12000301020EA06F0401056BC80E66
:1007A000046F0401080E016F180E026F040E036F30
:1007B000C80E006F12000301A06B0401046B12004D
:1007C000A4C3E9FFA5C3EAFFEF6E030100EF04F045
:1007D0000401080E016F100E026F040E036F120069
:1007E000D9CFE9FFDACFEAFFEE50ED101200D9CFF2
:1007F000E6FFE1CFD9FF1200E552E7CFD9FF1200A3
:10080000A42B000EA523A22BA323DF06010E1200AA
:1008100004011051600BE842E842E842E842E84235
:10082000000901E012001151070A40E00B0A3EE006
:10083000070A33E0010A23E00B0A1FE0020A1DE069
:10084000030A19E0080A10E0010A0CE00F0A08E0A8
:10085000030A01E0120012D90001040EFB6F12001E
:1008600057EF04F08EEF04F009D90301FD0EA26FDB
:10087000000EA36F0CD0A9EF04F0DBEF04F002D957
:100880000301A26FA36BFE0EA227000EA32300019B
:10089000FC930301010EA66F1200F4D8EA6AFE0F62
:1008A000E96E000EEA2212C4EFFF12001200800E61
:1008B0000401105D32E11351030A1FE0010A0AE04E
:1008C000030A29E1DBD80301AA0EA26F0D0EA36F64
:1008D000120E1ED0B2D8600EF6260E0EC0D8020E32
:1008E0000301F76AA225F66EA351F7220900F5CF9E
:1008F000A6F30A00F5CFA7F30ED09FD8640EF62614
:100900000E0EADD8A2C3F6FFA3C3F7FF0800F55043
:100910000301A66FA76B0001FC831200AFD80F0E76
:10092000E66E710EE66E0F0EA2D8010EE66EFE0E9A
:10093000E66E000E9CD812C4FDF00401125104E1D1
:100940000001050EFB6F12000001060EFB6FAFEFFA
:1009500005F00401186B196B040110511F0B020AFA
:100960000FE0030A0BE0010A18E188D8040118819E
:100970000001FCA112D0040118830FD07FD80DD044
:1009800050D801E0010E62D8A4C3E9FFEA6EEF502F
:10099000040B03E00401010E186F0301A1050AE135
:1009A0000301180EA26F040EA36F0001FC93030154
:1009B000020EA66F1200040112050EE110511F0B6A
:1009C00000090AE15BD8030E0401115D03E1000197
:1009D000FC8102D00001FC910401125121E110516F
:1009E0001F0B02081DE114510F0B000919E019D863
:1009F00001E0010E2BD8030E0401115D02E1840E0B
:100A000003D014AF07D0400EA4C3E9FFA5C3EAFF8B
:100A1000EF6E1200880EA4C3E9FFA5C3EAFFEF6ED4
:100A2000120030D80F0B080DF350016A000F006E52
:100A3000040E01221451800B120020D8040112511F
:100A4000F66EF76AD890F636F7361200040DF350BA
:100A500003010024A46F000E0120A56F1200F722ED
:100A60000900F5CFA2F30A00F5CFA3F31200E66E5A
:100A7000C0EC06F0E552E552E55212000301010E0A
:100A8000A16F1200FBDF0401145112000401105188
:100A90001F0B010801E01200145101E01200060EC4
:100AA000115D24E11351230A1FE0010A0DE0030A3E
:100AB0001BE1DBD80001FD0505E10301CE0EA26FAD
:100AC0000D0EA36F090E0DD0D0D80001FD0505E174
:100AD0000301430EA26F0E0EA36F0001FD0504E19A
:100AE0001D0E0301A66FA76B0001FC8304011051CA
:100AF000600BE842E842E842E842E842010801E0CF
:100B0000120011510B0A25E0080A17E0090A11E04A
:100B1000080A09E00B0A05E0080A01E01200ADEF3F
:100B200005F0AEEF05F0A1D80301A90EA26F030EE8
:100B300009D09BD813C4A9F3120097D80301AA0EB9
:100B4000A26F030EA36F0001FC930301010EA66FB9
:100B500012008BD812C4AAF3120012001200030173
:100B6000AB6B1E0E716E0401400E096F200E0A6FF2
:100B7000040E0B6F880E086F0401600E0E6F040EDA
:100B80000F6F400E0C6F1200D9CFE6FFE1CFD9FFF7
:100B9000E652FC0EDB50400805E2400EF36EFC0E00
:100BA000F3CFDBFFDF6AFC0EDB50DF5C0FE2DF50D0
:100BB00050D8EF50E66EDF50EA6A600FE96E040E1F
:100BC000EA22E552E750EF6EDF2AEDD7FC0EDBCFCD
:100BD0000DF4400E04010C170C7D880E0C13E55229
:100BE000E552E7CFD9FF1200D9CFE6FFE1CFD9FF19
:100BF0000301AB6B040108BF26D0FC0EDBCF00F075
:100C00000951D880005403E2FC0E09C4DBFF030144
:100C1000AB6BFC0EDB50AB5D0FE2AB51EA6A200F11
:100C2000E96E040EEA22EF50E66EAB5112D8E5529F
:100C3000E750EF6EAB2BEDD70401400E096F08179C
:100C4000087D880E08130301AB51E552E7CFD9FFA9
:100C50001200E76EFD0EDBCFE9FFFE0EDBCFEAFFF1
:100C6000E750E926000EEA2212000301020EA16FEE
:100C700012006DA60CD80001FB0508E16DBA06D084
:100C8000686A696A69806988020EFB6F12006D6A82
:100C9000696A6D860001010EFB6F12000001FB51B5
:100CA00001E1120068B425D86DB2120068B038D8DE
:100CB00068B817D868BA24D8030E0001FB5D01E2BA
:100CC00012000001FF6B040EFF5D0AE268A608D067
:100CD0007CEC02F0000901E168960001FF2BF3D7DC
:100CE0001200698468986D82A19AA08A0300A09A74
:100CF00012006D92699468A402D06894FCD7120027
:100D000070A00CD0800E0401005D07E1840E040188
:100D1000045D03E104018C0E006F7090689A12006C
:100D20006A6A686A9F0E6B6E7B0E696E6E6A0F0E42
:100D3000E66E710EE66E0F0EE66E22D8E552E552B3
:100D4000E552160E706E68A605D0689600D000D0E9
:100D50000000F9D76D98DBEC03F00401080E016F79
:100D60000401100E026F040E036F04018C0E006F5D
:100D70000001FC910001FD6B0001030EFB6F1200EE
:100D8000D9CFE6FFE1CFD9FFFD0EDBCFE9FFFE0EA5
:100D9000DBCFEAFFFC0EDB5004E0EE6AFC0EDB0664
:100DA000F9D7E552E7CFD9FF120012010002000087
:100DB0000008D8043C0002000102000109022900D9
:100DC000010100C0320904000002030000000921F3
:100DD00011010001221D00070581034000010705E4
:100DE00001034000010403090434034D006900635A
:100DF0000072006F006300680069007000200054FA
:100E0000006500630068006E006F006C006F006793
:100E1000007900200049006E0063002E0026034880
:100E200000490044002000550053004200200042C9
:100E3000006F006F0074006C006F0061006400655B
:100E40000072000600FF0901A101190129401500E7
:100E500026FF00750895408100190129409100C0C6
:100E6000BC0DBC0DE50DE90D1D0E8C0A200EF66EB5
:100E7000000EF76E000EF86E00010900F550F66FD7
:100E80000900F550F76F03E1F66701D03DD0090086
:100E9000F550F16F0900F550F26F0900F550F36F4E
:100EA00009000900F550E96E0900F550EA6E0900E5
:100EB00009000900F550F46F0900F550F56F0900BD
:100EC0000900F6CFF8F0F7CFF9F0F8CFFAF0F1C05B
:100ED000F6FFF2C0F7FFF3C0F8FF0001F45302E1A0
:100EE000F55307E00900F550EE6EF407F8E2F50758
:100EF000F9D7F8C0F6FFF9C0F7FFFAC0F8FF000114
:100F0000F607000EF75BBFD712000F0EC16E82A06E
:100F100004D0070EC16E00EF08F00ED8040016D8FA
:100F200019D8060E0001FB5D05E16D50020B02E1D0
:100F300023EC00F0F3D71200140E6F6E0001FB6B70
:100F40000001FC6B0001FD6B17EF00F039EC06F0BF
:100F50004EEF06F00301AC51AD1104E1100EAC6F81
:100F6000270EAD6FAC07000EAD5B060E0001FB5DFA
:100F700002E28B8408D00301AC51AD1107E18B7400
:100F80008B50040B02E08B9212008B821200000E39
:100F9000F36E00EE00F0080E01D81200EA6002D0F5
:100FA000EE6AFCD7F350E9601200EE6AFCD713EE4C
:100FB00000F023EE00F0F86A049C36EC07F0E5EC54
:100FC00007F085EC07F0FBD7120012000000FFFFCE
:100FD000FFFFFFFFFFFFFFFFFFFFFFFFFFFFFFFF21
:100FE000FFFFFFFFFFFFFFFFFFFFFFFFFFFFFFFF11
:100FF000FFFFFFFFFFFFFFFFFFFFFFFFFFFFFFFF01
:10100000FFFFFFFFFFFFFFFFFFFFFFFFFFFFFFFFF0
:0200000400F00A
:020000040030CA
:0E000000240E3F1E008181000FC00FE00F4054
:020000040020DA
:08000000FFFFFFFFFFFFFFFF00
:00000001FF
