:020000040000FA
:101000000EEF17F01200FFFFFDEF13F01200FFFFCD
:10101000FFFFFFFFFFFFFFFF06EF14F01200FFFFCF
:10102000FFFFFFFFFFFFFFFFFFFF01003A2E000061
:101030003F01000003000000D9CFE6FFE1CFD9FF58
:10104000E652A09A6A6A686A706A020EE66EE66AFA
:10105000E66A710EE66E0F0EE66EE4EC16F0106EA8
:10106000050EE15E1050160E6F6E9F0E6B6E7B0EBE
:10107000696EDF6ADF50106E116A0C0E105C000E94
:10108000115810E2DF50040DF3CFE9FFF4CFEAFF6F
:10109000000EE926040EEA22EE6AEE6AEE6AEE6AB5
:1010A000DF2AE8D76D8C6E6A6D986D9C68A607D0B4
:1010B00068960101186B1D6B1E6B1F6BF7D7010142
:1010C000010E316F326F336B346B256BDF6A030EA9
:1010D000DF5C26E2EA6ADF34FE0BEA36E96E0E0ECA
:1010E000E926010EEA22EE6AED6AEA6ADF34FE0BB7
:1010F000EA36E96E080EE926010EEA22EE6AED6A8A
:10110000DF50EA6A290FE96E010EEA22EF6ADF502A
:10111000EA6A2C0FE96E010EEA22EF6ADF2AD7D7BE
:101120000101080E0E6F040E0F6F160E706E040193
:10113000300E026F040E036F080E016F840E006FF5
:101140000101016B006BE552E552E7CFD9FF1200B8
:10115000D9CFE6FFE1CFD9FFE6520101005116E1F8
:1011600006D06D6A696A0101006BA19ABDD06D6AF3
:10117000696A160E6F6E9F0E6B6E7B0E696E6DB692
:1011800002D06D86FCD70101010E006F000508E159
:101190006DBA06D0686A696A69806988020E006F54
:1011A0006850040B06E06950040B03E06894B5EC4A
:1011B0000EF06DA202D0A19A97D06850010B08E002
:1011C0006950010B05E038DF0101040E006F6890E3
:1011D0006850100B06E06950100B03E0A0EC0EF015
:1011E000689868AC19D069AC0FD0010EE66EE66A5B
:1011F000000EE66EE66A730EE66EE66ABDEC15F06A
:10120000106E060EE15E1050689C01012F5101E046
:101210002F072F5101E1EFD96850200B05E06950ED
:10122000200B02E087EC0EF06850020B13E06950CF
:10123000020B10E0010EE66EE66A000EE66EE66A4C
:10124000E6687F0EE66EBDEC15F0106E060EE15EF0
:1012500010506A6A040E0101E76E0019E8AE02D070
:10126000E73402D0E750005D02E2A19A3DD069A6C2
:101270003AD0DF6A040EDF5C36E268A631D06CCF6C
:1012800026F101012651780BE842E842E842276F37
:10129000689626B508D02751EA6A2C0FE96E010E30
:1012A000EA22EF7007D02751EA6A290FE96E010E92
:1012B000EA22EF70275103E1CCEC0EF010D0000EC3
:1012C000E66EE66A260EE66E010EE66E720EE66EBB
:1012D000E66ABDEC15F0106E060EE15E105001D00E
:1012E00002D0DF2AC7D7A19AE552E552E7CFD9FF4E
:1012F0001200D9CFE6FFE1CFD9FF020EE126FD0EA5
:10130000DBA407D0E66AFE0EDBCFE6FF05DAE55286
:10131000E552FD0EDBA208D0010EE66EFE0EDBCF1D
:10132000E6FFFAD9E552E552FE0EDB50116A700F66
:10133000106E0F0E112210C0DEFF11C0DDFFDECFD8
:10134000E9FFDDCFEAFFFD0EDBCFEFFF020EE15C30
:1013500002E2E16AE552E16EE552E7CFD9FF120001
:10136000D9CFE6FFE1CFD9FF020EE126FD0EDB501B
:101370000FE0FE0EEA6ADB34FE0BEA36E96E0E0E73
:10138000E926010EEA22EECFDEFFEDCFDDFF0ED023
:10139000FE0EEA6ADB34FE0BEA36E96E080EE92639
:1013A000010EEA22EECFDEFFEDCFDDFFD9CFE9FF60
:1013B000DACFEAFFEE50ED1003E1F36AF46A49D0A8
:1013C000DECFE9FFDDCFEAFF020EE926000EEA22BA
:1013D000FB0EDBCFEEFFFC0EDBCFEDFFDECFE9FF38
:1013E000DDCFEAFFEE52FA0EDBCFEFFF400E106EBC
:1013F000DECFE9FFDDCFEAFF1050EF16880E106E4A
:10140000DECFE9FFDDCFEAFF1050EF12FD0EDB501B
:101410000CE0FE0EEA6ADB34FE0BEA36E96E0E0ED5
:10142000E926010EEA22EF740BD0FE0EEA6ADB34E5
:10143000FE0BEA36E96E080EE926010EEA22EF7489
:10144000DECF10F0DDCF11F010C0F3FF11C0F4FFBC
:1014500000D0020EE15C02E2E16AE552E16EE55283
:10146000E7CFD9FF1200D9CFE6FFE1CFD9FF020EB7
:10147000E126FE0EDB5020E106C1E9FF07C1EAFFCD
:10148000EE52080EEF6E06C1E9FF07C1EAFF020E39
:10149000E926000EEA22300EEE6E040EED6E06C155
:1014A000E9FF07C1EAFF8C0EEF6E0EC1E9FF0FC125
:1014B000EAFF840EEF6E3DD0FD0EDB50E824126E85
:1014C000FE0EDB50040DF3501224040DF3CF10F088
:1014D000F4CF11F0000E1026040E112210C0DEFF12
:1014E00011C0DDFF840E106EDECFE9FFDDCFEAFF15
:1014F0001050EF12FD0EDB50E824126EFE0EDB5092
:10150000040DF3501224010F040DF3CF10F0F4CFAB
:1015100011F0000E1026040E112210C0DEFF11C0C3
:10152000DDFF840E106EDECFE9FFDDCFEAFF105045
:10153000EF12020EE15C02E2E16AE552E16EE55271
:10154000E7CFD9FF1200D9CFE6FFE1CFD9FF6DA8D1
:101550004ED0FE0EEA6ADB34FE0BEA36E96E0E0E62
:10156000E926010EEA22EE50EFCFEAFFE96E400EC7
:10157000EE16EE6AEE6AEE6AFE0EEA6ADB34FE0BE7
:10158000EA36E96E0E0EE926010EEA22EE50EFCFA2
:10159000EAFFE96EEE7CFE0EEA6ADB34FE0BEA3609
:1015A000E96E0E0EE926010EEA22EF74400E106E6F
:1015B000FE0EEA6ADB34FE0BEA36E96E0E0EE92611
:1015C000010EEA22EE50EFCFEAFFE96E1050EF165F
:1015D000FE0EEA6ADB34FE0BEA36E96E0E0EE926F1
:1015E000010EEA22EE50EFCFEAFFE96EEF7CE55202
:1015F000E7CFD9FF1200010131514DE1010E316FEA
:10160000325149E1010E326F020E155D0DE10EC13E
:10161000E9FF0FC1EAFFEE52EF6A0EC1E9FF0FC109
:10162000EAFFC80EEF6E37D0150535E1286B04C10F
:10163000E9FF05C1EAFFEE52080EEF6E04C1E9FFB3
:1016400005C1EAFF020EE926000EEA22300EEE6E18
:10165000040EED6E04C1E9FF05C1EAFF840EEF6ED2
:10166000010E286F06C1E9FF07C1EAFFEE52080E1E
:10167000EF6E06C1E9FF07C1EAFF020EE926000E80
:10168000EA22300EEE6E040EED6E06C1E9FF07C1D0
:10169000EAFF800EEF6E12000101336B346B020E15
:1016A000155D1AE106C1E9FF07C1EAFFEE52080E17
:1016B000EF6E06C1E9FF07C1EAFF020EE926000E40
:1016C000EA22380EEE6E040EED6E06C1E9FF07C188
:1016D000EAFFC80EEF6E1FD019510401365D0101FB
:1016E0001A510401375904E236C419F137C41AF10A
:1016F000D1D80EC1E9FF0FC1EAFF020EE926000EA4
:10170000EA22380EEE6E040EED6E0EC1E9FF0FC137
:10171000EAFFC80EEF6E1200D9CFE6FFE1CFD9FF86
:10172000020EE126000EDE6E040EDD6EFD0EDB50B5
:10173000E824126EFE0EDB50040DF3501224040D4B
:10174000F3CF10F0F4CF11F0D9CFE9FFDACFEAFFF1
:101750001050EE261150ED22DECFE9FFDDCFEAFF7B
:10176000EF9EFD0EDB500FE1FE0EEA6ADB34FE0B4E
:10177000EA36E96E080EE926010EEA22DECFEEFF18
:10178000DDCFEDFF0ED0FE0EEA6ADB34FE0BEA364B
:10179000E96E0E0EE926010EEA22DECFEEFFDDCF66
:1017A000EDFFDECFE9FFDDCFEAFFEF9CDECFE9FF03
:1017B000DDCFEAFF040EE926000EEA22EF8C020ECE
:1017C000E15C02E2E16AE552E16EE552E7CFD9FF62
:1017D00012006D98010118BF2BD01DAF09D0020E69
:1017E000156F345101E158DF0101326B316B1FD0AD
:1017F00006C1E9FF07C1EAFFEE52080EEF6E06C10F
:10180000E9FF07C1EAFF020EE926000EEA22300EC8
:10181000EE6E040EED6E06C1E9FF07C1EAFF8C0E05
:10182000EF6E0EC1E9FF0FC1EAFF840EEF6E31D0FB
:10183000040130AF0DD00101010E156F335101E1EC
:101840002BDF0101326B316B305101E1D4DE21D04D
:101850000101020E156F06C1E9FF07C1EAFFEE5252
:10186000080EEF6E06C1E9FF07C1EAFF020EE92686
:10187000000EEA22300EEE6E040EED6E06C1E9FF98
:1018800007C1EAFF840EEF6E326B316B305101E11C
:10189000B2DE1200D9CFE6FFE1CFD9FFE652080E43
:1018A000DF6E0101195D000E1A590BE219C1DFFF4D
:1018B000145103E1010E146F04D0140502E1020E6D
:1018C000146FDF50106E116A1050195D196F1150AE
:1018D0001A591A6F0EC1E9FF0FC1EAFFEE52DFCFAE
:1018E000EFFF380E226F040E236F18B119D0DF50AE
:1018F00016E016C1F6FF17C1F7FF162B000E1723CF
:101900000800F550E66E22C1E9FF23C1EAFF222B51
:10191000000E2323E552E750EF6EDF06E8D717D01D
:10192000DF5015E016C1E9FF17C1EAFF162B000EC4
:101930001723EF50E66E22C1E9FF23C1EAFF222BF5
:10194000000E2323E552E750EF6EDF06E9D7E5529C
:10195000E552E7CFD9FF1200D9CFE6FFE1CFD9FF9B
:10196000020EE12604C1E9FF05C1EAFFEE52EFCF06
:10197000DFFFDFCF10F0105001011E5D000E1F5978
:1019800002E21EC1DFFFDF50106E116A10501E5DB3
:101990001E6F11501F591F6F010EDB6ADF50F36E6F
:1019A000010EDBCFF4FFF350F45C16E2010EDB50C6
:1019B000EA6A380FE96E040EEA22EF50E66E1BC1A8
:1019C000E9FF1CC1EAFF1B2B000E1C23E552E75068
:1019D000EF6E010EDB2AE2D7000ED8801E55000EF6
:1019E0001F5528E206C1E9FF07C1EAFFEE52080EC3
:1019F000EF6E06C1E9FF07C1EAFF020EE926000EFD
:101A0000EA22380EEE6E040EED6E04C1E9FF05C148
:101A1000EAFFEF50400B07E106C1E9FF07C1EAFF0B
:101A2000C80EEF6E06D006C1E9FF07C1EAFF880EB7
:101A3000EF6E28D006C1E9FF07C1EAFFEE52080E9B
:101A4000EF6E06C1E9FF07C1EAFF020EE926000EAC
:101A5000EA22300EEE6E040EED6E06C1E9FF07C1FC
:101A6000EAFF840EEF6E2051211107E005D021C15D
:101A7000FAFF01012051F96EFADF01011D9F30517B
:101A800001E1B9DD020EE15C02E2E16AE552E16EDC
:101A9000E552E7CFD9FF1200D9CFE6FFE1CFD9FF5A
:101AA000E6520101188F020EE66EE66AE66A710ED2
:101AB000E66E0F0EE66EE4EC16F0106E050EE15EBB
:101AC0001050300EE66EE66AE66A000EE66E040E10
:101AD000E66EE4EC16F0106E050EE15E10506D8CB3
:101AE000DF6A030EDF5C10E2DF50EA6A290FE96E5D
:101AF000010EEA22EF6ADF50EA6A2C0FE96E010E4E
:101B0000EA22EF6ADF2AEDD7020EE66EE66AE66A9F
:101B1000020EE66E010EE66EE4EC16F0106E050E97
:101B2000E15E10506D9C0101080E0E6F040E0F6FE8
:101B3000000E046F040E056F04C106F105C107F124
:101B400032C401F1015103E1100E006F13D0010EF8
:101B5000E66EE66A010EE66E010EE66E010EE66EB8
:101B6000E66ABDEC15F0106E060EE15E1050010144
:101B7000200E006FE552E552E7CFD9FF1200800E2C
:101B80000401305D5BE10101C00E186F04013351A7
:101B9000030A34E0010A0EE0030A03E00101186BB6
:101BA0004DD00101180E166F2C0E176F120E196F03
:101BB0001A6B44D03251F66EF76AD890F636F73683
:101BC000D90EF6262C0EF7220900F5CF16F10A00E1
:101BD000F5CF17F1020E0101F76A1625F66E1751BF
:101BE000F7220800F5CF19F1030EF76A1625F66EF5
:101BF0001751F7220800F5CF1AF120D0030E325DFD
:101C00001AE23251F66EF76AD890F636F736DB0EE6
:101C1000F6262C0EF7220900F5CF16F10A00F5CFB3
:101C200017F116C1F6FF17C1F7FF0800F5500101C3
:101C3000196F1A6B02D00101186B00D01200D9CFB6
:101C4000E6FFE1CFD9FF020EE1260401386B396BC4
:101C500030511F0B020A12E0030A0DE0010A01E0F5
:101C600042D00101188F040138810101240502E1ED
:101C70000401388338D00101188F35D00101188F45
:101C8000040134BF10D034510F0BE96EEA6AD890CA
:101C9000E936EA36080EE926010EEA22EECFDEFF2B
:101CA000EDCFDDFF0FD034510F0BE96EEA6AD8900B
:101CB000E936EA360E0EE926010EEA22EECFDEFF05
:101CC000EDCFDDFFDECFE9FFDDCFEAFFEF50800B88
:101CD00009E0DECFE9FFDDCFEAFFEF50040B02E0C1
:101CE000010E386F00D0010118AF07D0380E166F03
:101CF000040E176F1881020E196F020EE15C02E2EA
:101D0000E16AE552E16EE552E7CFD9FF120070A01B
:101D100015D004C1E9FF05C1EAFFEF5080080DE1CD
:101D20000EC1E9FF0FC1EAFFEF50840806E104C1CC
:101D3000E9FF05C1EAFF8C0EEF6E7090689A120001
:101D4000698468986D820101010E256F000EE66EB0
:101D5000E66AE66EE66A750EE66EE66ABDEC15F0BA
:101D6000106E060EE15E105012000101256B000E90
:101D7000E66EE66AE66EE66A740EE66EE66ABDEC4C
:101D800015F0106E060EE15E10506D92699468A415
:101D900002D06894FCD71200D9CFE6FFE1CFD9FF7B
:101DA000E65201012D0E2F6FFD0E261553E17E0E1A
:101DB0002615E8407F0B040DF3CF04F1F4CF05F1B5
:101DC000000E0427040E052304C106F105C107F126
:101DD000067504C1E9FF05C1EAFFEF503C0BE8427C
:101DE000E8420D0835E1DF6A080EDF5C23E204C13A
:101DF000E9FF05C1EAFF020EE926000EEA22EE50D5
:101E0000EFCFEAFFE96EEF50E66EDF50EA6A300F7F
:101E1000E96E040EEA22E552E750EF6E04C1E9FFD5
:101E200005C1EAFF020EE926000EEA22EE2AEF22A1
:101E3000DF2ADAD704C1E9FF05C1EAFF020EE9266D
:101E4000000EEA22300EEE6E040EED6E0DD801D0BB
:101E50003AD805D0FD0E2615040801E159D8E552FF
:101E6000E552E7CFD9FF12000101146B306B336BE1
:101E7000346B286B156B0EC1E9FF0FC1EAFFEF9EB3
:101E80000E750EC1E9FF0FC1EAFFEF9E0E7506C188
:101E9000E9FF07C1EAFFEF9E186B196B1A6B1D6B08
:101EA0001E6B1F6B8FD8000EE66EE66AE66EE66A62
:101EB000030EE66EE66ABDEC15F0106E060EE15EEE
:101EC0001050E9EF0BF0020E0101155D02E144DD57
:101ED0001ED0156B28511AE106C1E9FF07C1EAFFC0
:101EE000EE52080EEF6E06C1E9FF07C1EAFF020ECF
:101EF000E926000EEA22300EEE6E040EED6E06C1EB
:101F0000E9FF07C1EAFF8C0EEF6E01D0286B1200CB
:101F1000D9CFE6FFE1CFD9FFE6520EC1E9FF0FC1ED
:101F2000EAFFEF50400B01E0010EDF6E01010E757C
:101F3000080E005D09E132C46EFF6E5003E0100E22
:101F4000006F02D0040E006F150528E10EC1E9FFF5
:101F50000FC1EAFF020EE926000EEA22380EEE6EED
:101F6000040EED6E97DC020E0101145D07E10EC157
:101F7000E9FF0FC1EAFF840EEF6E0FD0DF5007E1DB
:101F80000EC1E9FF0FC1EAFFC80EEF6E06D00EC109
:101F9000E9FF0FC1EAFF880EEF6E0FD01DAF0CD026
:101FA0002051211107E005D021C1FAFF0101205184
:101FB000F96EFADF01011D9F156BE552E552E7CF7F
:101FC000D9FF120004013051600BE842E842E842B8
:101FD000E842E842000901E058D031510C0A54E0CF
:101FE0000B0A43E00C0A35E0010A26E00B0A22E066
:101FF000020A20E0030A1CE0080A10E0010A0CE0D3
:102000000F0A08E0030A01E03FD00101188F080E13
:10201000006F3BD0B4DD39D03FDD37D00101010E78
:10202000166F010E176F1881010E196F188F2DD0C2
:1020300006DE2BD02BD829D034510101166F176B37
:10204000020E1627010E17231881010E196F188F23
:102050001CD00101188F04013451EA6A020FE96EA5
:10206000010EEA2232C4EFFF10D0000EE66EE66ADF
:10207000E66EE66A020EE66EE66ABDEC15F0106EDC
:10208000060EE15E105001D000D01200D9CFE6FF5D
:10209000E1CFD9FF050EE1260401320510E13051F0
:1020A0001F0B00090CE10101188F030E0401315DC3
:1020B00004E10101010E246F02D00101246B04012F
:1020C000325101E020D130511F0B020801E01BD139
:1020D00034510F0B000901E116D134510F0B0208E6
:1020E00001E211D1200E0101005D01E00CD1188F39
:1020F000040134BF1AD034510F0BE96EEA6AD8904C
:10210000E936EA36080EE926010EEA22EECFDEFFB6
:10211000EDCFDDFF34510F0BEA6A2C0FE96E010E93
:10212000EA22020EEFCFDBFF19D034510F0BE96E1C
:10213000EA6AD890E936EA360E0EE926010EEA225E
:10214000EECFDEFFEDCFDDFF34510F0BEA6A290F32
:10215000E96E010EEA22020EEFCFDBFFD950020F2B
:10216000E96EDACFEAFFEF50010B03E1000EDF94D6
:1021700001D0DF8434BF10D034510F0BE96EEA6A0E
:10218000D890E936EA36080EE926010EEA22DECFBB
:10219000EEFFDDCFEDFF0FD034510F0BE96EEA6A91
:1021A000D890E936EA360E0EE926010EEA22DECF95
:1021B000EEFFDDCFEDFF030E315D23E1DECFE9FF62
:1021C000DDCFEAFFEF50800B13E034BF09D034516C
:1021D0000F0BEA6A2C0FE96E010EEA22EF8208D09B
:1021E00034510F0BEA6A290FE96E010EEA22EF82E1
:1021F000840E106EDECFE9FFDDCFEAFF1050EF1244
:1022000082D0DF74DECFE9FFDDCFEAFFEF50800B35
:102210001BE0DECFE9FFDDCFEAFFEF9EDECFE9FF77
:10222000DDCFEAFFEF8C020EE66EE66ADECFE6FF58
:10223000DDCFE6FF050EE66EE66ABDEC15F0106E2A
:10224000060EE15E105005D0DECFE9FFDDCFEAFFDC
:10225000EF8CDF74D950020FE96EDACFEAFFEF504E
:10226000020B07E1DECFE9FFDDCFEAFFEF50800B85
:102270002DE0040134BF09D034510F0BEA6A2C0F52
:10228000E96E010EEA22EF9208D034510F0BEA6A90
:10229000290FE96E010EEA22EF923B0E106EDECF9F
:1022A000E9FFDDCFEAFF1050EF16020EE66EE66A98
:1022B000DECFE6FFDDCFE6FF050EE66EE66ABDEC9B
:1022C00015F0106E060EE15E105008D03B0E106E39
:1022D000DECFE9FFDDCFEAFF1050EF1604013451E5
:1022E0000F0B116A700F106E0F0E1122030E10C02B
:1022F000DBFF040E11C0DBFF030EDBCFE9FF040E92
:10230000DBCFEAFFEF90050EE15C02E2E16AE55205
:10231000E16EE552E7CFD9FF1200040130511F0BE7
:10232000010801E04CD03051600BE842E842E8423D
:10233000E842E842010801E042D0345103E03405AC
:1023400001E03DD03151220A35E0030A28E0010ABC
:1023500017E0210A0EE0010A01E031D00101F80E78
:10236000166F000E176F080E196F1A6B1881188FF1
:1023700026D00101F80E166F000E176F188F1FD0B0
:1023800036C41EF137C41FF10101000E1B6F050E8C
:102390001C6FD80E206F280E216F1D8F10D00101E9
:1023A0008A0E166F050E176F070E196F1A6BC10E86
:1023B000186F05D032C4F3F00101188F00D012005D
:1023C00005018A6B4B0E8B6F8C6B8D6B8E6B8F6BDD
:1023D000080E906F0001E76B1A0EE66E010EE66EB6
:1023E00079EC09F0E552E5521E0EE66E020EE66E3D
:1023F00079EC09F0E552E552400EE66E0A0EE66E03
:10240000050EE66EE66A020EE66EB0EC09F0106E9E
:10241000050EE15E1050F3CFEFF0F4CFF0F00001C5
:10242000F16BF26BE86B1200D9CFE6FFE1CFD9FF79
:10243000FD0EDBCF06F0FE0EDBCF07F0050E061813
:1024400001E1075002E0000E31D0FB0EDBCF10F0AF
:10245000FC0EDBCF11F00001EF51101802E1F0513A
:10246000111813E1400EE66E0A0EE66E050EE66EDA
:10247000E66A020EE66EB0EC09F0106E050EE15E43
:102480001050F3CFEFF0F4CFF0F0FB0EDBCF10F0F5
:10249000FC0EDBCF11F00001F151101802E1F251F6
:1024A000111802E1E86BED6B010E00D0E552E7CFA9
:1024B000D9FF1200D9CFE6FFE1CFD9FF0001E76BCA
:1024C000EF51F01102E1000E08D0EFC0E9FFF0C0BB
:1024D000EAFFEF50800B01E0010E000945E1FC0E20
:1024E000DBCF10F0EFC0E9FFF0C0EAFFEE52EF5093
:1024F000D880105408E2EFC0E9FFF0C0EAFFEE52C6
:10250000FC0EEFCFDBFFE76BFC0EDB50E75D19E263
:10251000E751EA6A0A0FE96E050EEA22EF50E66E0D
:10252000E751E76EFD0EDBCFE9FFFE0EDBCFEAFFE2
:10253000E750E926000EEA22E552E750EF6EE72B5E
:10254000E3D7400EE66E0A0EE66E050EE66EE66A0C
:10255000020EE66EB0EC09F0106E050EE15E105052
:10256000F3CFEFF0F4CFF0F00001E75100D0E552E7
:10257000E7CFD9FF1200D9CFE6FFE1CFD9FF0001A5
:10258000E8510CE1FD0EDBCFE9F0FE0EDBCFEAF007
:10259000FC0EDBCFEDF0010EEE6FE86FE552E7CFFA
:1025A000D9FF1200D9CFE6FFE1CFD9FF030EE12614
:1025B0000001E85101E02ED0DF6AFD0EDBCF06F00E
:1025C000FE0EDBCF07F0DE5206C0DEFF07C0DDFFE8
:1025D000DD52DF2ADF50106E116AFF0E101801E184
:1025E000115001E10BD0010EDBCFE9FFDB2A020E17
:1025F000DBCFEAFF01E3DB2AEF50EBE1FD0EDBCF9F
:10260000E9F0FE0EDBCFEAF0DFCFEDF00001010EC6
:10261000EE6FE86F030EE15C02E2E16AE552E16E03
:10262000E552E7CFD9FF1200D9CFE6FFE1CFD9FFBE
:10263000030EE1260001E85101E02FD0DF6AFD0E14
:10264000DBCF06F0FE0EDBCF07F0DE5206C0DEFF6A
:1026500007C0DDFFDD52DF2ADF50106E116AFF0E6A
:10266000101801E1115001E10CD0010EDBCFF6FF93
:10267000DB2A020EDBCFF7FF01E3DB2A0800F5506F
:10268000EAE1FD0EDBCFE9F0FE0EDBCFEAF0DFCFB3
:10269000EDF00001EE6B010EE86F030EE15C02E26B
:1026A000E16AE552E16EE552E7CFD9FF1200D9CFDA
:1026B000E6FFE1CFD9FF020EE1260001F151F21150
:1026C00002E1000E08D0F1C0E9FFF2C0EAFFEF50CE
:1026D000800B01E0010E000901E085D0030EE85DEA
:1026E00001E1E86BE85101E17ED0020EE85D16E100
:1026F000E66A000EE66EE66A010EE66E020EE66E11
:10270000B0EC09F0106E050EE15E1050F3CFF1F061
:10271000F4CFF2F00001030EE86F65D0E80563E145
:10272000400E106E116AED51105C000E115803E25C
:10273000400EDF6E02D0EDC0DFFFDF50ED5DED6FCC
:102740004A0EEB6F050EEC6F010EDFCFDBFFEE5193
:1027500017E1010EDB5013E0E9C0F6FFEAC0F7FF16
:102760000800F550EBC0E9FFECC0EAFFEF6EEB2B81
:10277000000EEC23E92BEA23010EDB06EAD715D085
:10278000010EDB5012E0E9C0E9FFEAC0EAFFEF50BA
:10279000EBC0E9FFECC0EAFFEF6EEB2B000EEC2381
:1027A000E92BEA23010EDB06EBD7ED5108E1400EE1
:1027B000DF5C03E1020EE86F02D0030EE86FDFCFAB
:1027C000E6FF4A0EE66E050EE66E010EE66E020E9E
:1027D000E66EB0EC09F0106E050EE15E1050F3CF1E
:1027E000F1F0F4CFF2F0020EE15C02E2E16AE552B0
:1027F000E16EE552E7CFD9FF1200DACFE4FFE2CF76
:10280000DAFFE652E552E5CFDAFF1100D8CFE4FF58
:10281000E0CFE4FFE46EDACFE4FFE2CFDAFFE65286
:10282000E552E5CFDAFFE550E5CFE0FFE5CFD8FF91
:10283000100005D8A8EC08F0BDD8FCD712000F0E88
:10284000C11202D81CEF08F0D9CFE6FFE1CFD9FFC3
:10285000E6521FD8DF6ADF50106E116A400E105C1E
:10286000000E115809E2DF50EA6A600FE96E000EAF
:10287000EA22EF6ADF2AEFD70001E06BE16BE36B3E
:10288000E46BF00E8C169516E552E552E7CFD9FFB2
:102890001200D9CFE6FFE1CFD9FFE652948E949C87
:1028A000240EAC6E900EAB6E710EAF6E020EB06E5B
:1028B000080EB86EAE50DF6EE552E552E7CFD9FF95
:1028C0001200D9CFE6FFE1CFD9FFFE0EDB50AD6E8F
:1028D000E552E7CFD9FF1200D9CFE6FFE1CFD9FF0C
:1028E000040EE126D880000E05010055C20E0155E8
:1028F000010E0255000E035501E23DD000C58AF5D8
:1029000001C58BF502C58CF503C58DF5146A1B0E48
:10291000156EB70E166E176A14C004F015C005F0D8
:1029200016C006F017C007F08AC509F08BC50AF07B
:102930008CC50BF08DC50CF0C0EC16F004C010F087
:1029400005C011F006C012F007C013F01006000E0B
:10295000115A125A135A10C0DFFF010E11C0DBFFCB
:10296000020E12C0DBFF030E13C0DBFFDF50AF6EA1
:10297000010EDB50B06E040EE15C02E2E16AE5524A
:10298000E16EE552E7CFD9FF1200D9CFE6FFE1CFE4
:10299000D9FFE652ABA205D0AB98AE50DF6EAB8844
:1029A00002D0AE50DF6EDF5000D0E552E552E7CFE7
:1029B000D9FF120071D8200E0101E76E0019E8AEB0
:1029C00002D0E73402D0E750005D03E36D50020B04
:1029D00001E061D001013F5115E1400EE66EA00E0D
:1029E000E66E000EE66E5AEC12F0E552E552E55244
:1029F0000001E16FE151000805E20101010E3F6FA6
:102A00000001E26B01013F5115E0AC50020B12E0F6
:102A10000001E251EA6AA00FE96E000EEA22EF50CF
:102A2000E66E4FDFE5520001E22BE151E25D02E18B
:102A300001013F6B9E50200B18E03F0E0001E05D4E
:102A400014E2A3DFE66E0001E051EA6A600FE96E6E
:102A5000000EEA22E552E750EF6EE02BE051EA6A01
:102A6000600FE96E000EEA22EF6A0001E85111E101
:102A70000001E05100080DE2E0C0E6FF600EE66EE6
:102A8000000EE66EBBEC12F0E552E552E552000195
:102A9000E06B57EC13F0120001014051411104E1C9
:102AA000100E406F270E416F4007000E415B6DA274
:102AB0000AD04051411106E18C708CA002D08C826A
:102AC00001D08C922ED00101005103E18C908C92A8
:102AD00028D0000503E18C808C8223D0020E005D9B
:102AE00003E18C808C921DD0040E005D03E18C907C
:102AF0008C8217D0100E005D07E101014051411199
:102B000002E18C708C920DD0200E005D0AE1010173
:102B10004051411106E18C708CA002D08C9201D002
:102B20008C82120012001200120012008DEF11F0C0
:102B30001200E0EF11F0010124051EE1010125055D
:102B40001BE1F1DF6D920101256B0001100EE56FB5
:102B50000E0EE66FE507000EE65BE551E611FAE1C1
:102B60006D84080EE56F070EE66FE507000EE65B65
:102B7000E551E611FAE16D941200D9CFE6FFE1CFFD
:102B8000D9FFFD0EDBCF06F0FE0EDBCF07F0050E02
:102B9000061801E1075039E0E868061802E17F0EE7
:102BA000071831E0030E061801E107502AE0020E73
:102BB000061801E1075023E0010E061801E1075055
:102BC0001CE0740E061801E1075015E0750E06189A
:102BD00001E107500EE0730E061801E1075007E00F
:102BE000720E061801E1075001E010D00FD09CDFF3
:102BF0000DD098DF0BD097DF09D09BDF07D098DF8F
:102C000005D094DF03D091DF01D000D0010E00D0B9
:102C1000E552E7CFD9FF12001201000202000008BE
:102C2000D8040A0000010102000109024300020168
:102C300000C0320904000001020201000524001056
:102C400001042402020524060001052401000107F5
:102C50000581030A000109040100020A00000007BF
:102C6000050202400000070582024000000403093B
:102C70000434034D006900630072006F0063006854
:102C80000069007000200054006500630068006E59
:102C9000006F006C006F0067007900200049006E33
:102CA0000063002E00340343004400430020005220
:102CB0000053002D00320033003200200045006D2B
:102CC0000075006C006100740069006F006E0020E8
:102CD00000440065006D006F002A2C6D2C712CA53E
:102CE0002CFF2A0EF66E100EF76E000EF86E010124
:102CF0000900F5503A6F0900F5503B6F03E13A6760
:102D000001D03DD00900F550356F0900F550366F00
:102D10000900F550376F09000900F550E96E090008
:102D2000F550EA6E090009000900F550386F0900F6
:102D3000F550396F09000900F6CF3CF1F7CF3DF1AE
:102D4000F8CF3EF135C1F6FF36C1F7FF37C1F8FFC6
:102D50000101385302E1395307E00900F550EE6EE6
:102D60003807F8E23907F9D73CC1F6FF3DC1F7FF54
:102D70003EC1F8FF01013A07000E3B5BBFD71200CE
:102D8000036A026A016A006A200EE76ED890043670
:102D90000536063607360036013602360336095048
:102DA000005C0A5001580B5002580C50035809E3BC
:102DB0000950005E0A50015A0B50025A0C50035A37
:102DC000042AE72EE4D71200FE0EE3CFE9FFFF0E40
:102DD000E3CFEAFFE9CFF3FFEACFF4FFFB0EE350C6
:102DE00003E1FC0EE35009E0FB0EE30602E2FC0EF9
:102DF000E306FD0EE350EE6EF1D71200000EF36E07
:102E000000EE00F0080E01D81200EA6002D0EE6A6F
:102E1000FCD7F350E9601200EE6AFCD713EE00F025
:102E200023EE00F0F86A0F9C71EC16F01CEC17F022
:102E300019EC14F0FBD712001200000000FFFFFF96
:102E4000FFFFFFFFFFFFFFFFFFFFFFFFFFFFFFFF92
:102E5000FFFFFFFFFFFFFFFFFFFFFFFFFFFFFFFF82
:102E6000FFFFFFFFFFFFFFFFFFFFFFFFFFFFFFFF72
:102E7000FFFFFFFFFFFFFFFFFFFFFFFFFFFFFFFF62
:020000040030CA
:0E000000240E3F1EFF8181FF0FC00FE00F4056
:020000040020DA
:08000000FFFFFFFFFFFFFFFF00
:0200000400F00A
:10000000FFFFFFFFFFFFFFFFFFFFFFFFFFFFFFFF00
:10001000FFFFFFFFFFFFFFFFFFFFFFFFFFFFFFFFF0
:10002000FFFFFFFFFFFFFFFFFFFFFFFFFFFFFFFFE0
:10003000FFFFFFFFFFFFFFFFFFFFFFFFFFFFFFFFD0
:10004000FFFFFFFFFFFFFFFFFFFFFFFFFFFFFFFFC0
:10005000FFFFFFFFFFFFFFFFFFFFFFFFFFFFFFFFB0
:10006000FFFFFFFFFFFFFFFFFFFFFFFFFFFFFFFFA0
:10007000FFFFFFFFFFFFFFFFFFFFFFFFFFFFFFFF90
:10008000FFFFFFFFFFFFFFFFFFFFFFFFFFFFFFFF80
:10009000FFFFFFFFFFFFFFFFFFFFFFFFFFFFFFFF70
:1000A000FFFFFFFFFFFFFFFFFFFFFFFFFFFFFFFF60
:1000B000FFFFFFFFFFFFFFFFFFFFFFFFFFFFFFFF50
:1000C000FFFFFFFFFFFFFFFFFFFFFFFFFFFFFFFF40
:1000D000FFFFFFFFFFFFFFFFFFFFFFFFFFFFFFFF30
:1000E000FFFFFFFFFFFFFFFFFFFFFFFFFFFFFFFF20
:1000F000FFFFFFFFFFFFFFFFFFFFFFFFFFFFFFFF10
:00000001FF
