:1000000000EF08F00000000000EF00F0000000002A
:0A0010000000000000000000F3D71C
:10100000010E926E936A010E946E0E0EC16E806A8E
:10101000816A826A8282070E0B6E170E0C6E6A0E50
:101020000D6E0D2EFED70C2EFCD70B2EFAD700001E
:10103000196AADD8C7D800C015F001C016F002C0BB
:1010400017F003C018F0000E046E000E056E340E8B
:10105000066E860E076E2EDA000E046EC00E056E4A
:101060007F0E066E880E076EC9D800C015F001C04D
:1010700016F002C017F003C018F07AD900C019F0BA
:1010800001C01AF0DED9020E0B6E380E0C6EAD0EDA
:101090000D6E0D2EFED70C2EFCD70B2EFAD7C8D70F
:0210A000FFD778
:0810A2000AAE029E000E1200CE
:1010AA000B840BAE60EF08F0010E036E026A016A50
:0A10BA00006A0A360232FF0E12002F
:0E10C400026A016A006A086A036A000E1200DE
:1010D2000C6A0E6A0250D8A482EF08F001C002F036
:1010E20000C001F0006A0E860250D8A482EF08F018
:1010F20001C002F0016A0E960E880250D8B494EF35
:1011020008F00E50035ED8A4D8A099EF08F0D8904A
:1011120002BE9EEF08F0003601360236032E89EF3A
:1011220008F099EF08F0010E0C6ECBDFA1EF08F08A
:10113200020E0C6EB9DFA1EF08F0040E0C6EB0DFE8
:02114200120099
:101144000B820BAEACEF08F003680268016800681C
:081154000A360232FF0E120000
:08115C000B6A0B86FF0E120066
:0E116400570E0D6E0D2EFED70000000012007B
:101172000B800BAEC5EF08F0026A0AAEFF0E026EDC
:0C118200016E006E0A360232FF0E1200F1
:10118E00C26A070EC012C08E19C000F00036009061
:10119E00003600900050C212C280DDDFC282C2A2B1
:1011AE0001D0FDD7C4CF01F0006AC3500012000E6B
:0611BE000112C2901200B4
:1011C4000050086E0150006E016A026A036A0B6ADD
:1011D4000C6A960E036E0A6A00C001F008C000F0A3
:0811E400086A026A74DF1200C0
:1011EC000900F5CFE6FF0006FBE10106F9E112006C
:1011FC000450000A12E10550000A0FE10650000AE3
:10120C000CE10750000A09E1FF0E006EFF0E016EA3
:10121C007F0E026EFF0E036EA4D0086A096A075097
:10122C00D8B4A9EF09F00350D8B4ADEF09F00250CF
:10123C0006180A6E028E068E0E6A02C008F001C0F5
:10124C000CF000C00DF004500D5E0550D8A0053C0C
:10125C000C5E0650D8A0063C085E086A0C6A0D6A43
:10126C00D8A040EF09F0D890023201320032083297
:10127C00010E0E6E0750035ED8A04DEF09F07E0EE6
:10128C000E240326D8B0B1EF09F053EF09F07E0E0F
:10129C000E240326D8A0B5EF09F0180E0B6E0D36F0
:1012AC000C3608360036013602360E360450005E17
:1012BC000550D8A0053C015E0650D8A0063C025E45
:1012CC0006340E120EA06EEF09F00D8079EF09F0C6
:1012DC00045000260550D8B0053C01260650D8B065
:1012EC00062802260D900B2E55EF09F09FEF09F002
:1012FC00D8900036013602360E360450005E05508A
:10130C00D8A0053C015E0650D8A0063C025E06340F
:10131C000E10010B0D26D8B00C2AD8B4082AD8A46C
:10132C009FEF09F008320C320D32032AD8B4B1EF1A
:10133C0009F00AAE089E0850026E0C50016E0D505A
:10134C00006EB7EF09F0010E03DFB7EF09F0020EE4
:10135C00B3DEB7EF09F0040EEFDEB7EF09F0080EBD
:04136C009EDE1200EF
:101370000B6A0350D8B4FEEF09F002500A6E028ED9
:101380008E0E035E03AE02EF0AF0036C080E035CE0
:10139000D8A0DDEF09F0036E013602C001F0026A49
:1013A000080E035CD8A0DDEF09F0036E0136016A78
:1013B0000350D8A4D890E7EF09F00350D8B4E7EF72
:1013C00009F0D89002320132032EE1EF09F00BBC94
:1013D00001A0F4EF09F0D8A0F4EF09F0012AD8B485
:1013E000022A02BE11EF0AF00AAE16EF0AF0021E40
:1013F000011E012AD8B4022A16EF0AF0026A016A15
:1014000016EF0AF00B800BAE1AEF0AF0026A0AAE72
:101410001AEF0AF0FF0E026E016E0A3602321AEF60
:101420000AF0010E0C6EA5DE1CEF0AF0000E0C6E29
:101430001CEF0AF0FF0E0C6E0150006E0250016EA0
:02144000120098
:10144200800E006E800E1A18005C02E1195000082E
:1014520002E3196A1A6A800E1A18006E800E005C86
:1014620002E1B40E195C04E3B40E196E000E1A6E9A
:101472008180100E0C6E940E0D6E0D2EFED70C2E6A
:10148200FCD70000016A026A800E1A18006E800EF4
:101492000218005C02E10150195C09E3170E0D6E9F
:1014A2000D2EFED700000000014A022AEDD78190DE
:0214B200120026
:1014B400086A096A000E07620364DFEF0AF002504B
:1014C40006180A6E075003267E0ED8A070EF0AF0A5
:1014D400035ED8B0E3EF0AF074EF0AF0035ED8A01D
:1014E400E7EF0AF0028E068E02C00EF001C00BF088
:1014F40000C00DF000500402F4CF0CF001500502BE
:10150400F4CF00F0F3CF08F00402F3500C26F450AB
:101514000822000E00220D500502F3500C26F45050
:101524000822000E002202500402F3500826F45050
:10153400002202500502016A000E0122F350002627
:10154400F45001220D500602F3500826F4500022F4
:10155400026A000E012202220B500602F3500026FA
:10156400F4500122000E02220E500602F35001260E
:10157400F450022202BEC7EF0AF0083600360136E4
:1015840002360306D8B4E7EF0AF0DAEF0AF0D8809F
:10159400800E08640030000E002201220222D8A02E
:1015A400DAEF0AF0023201320032034AE3EF0AF0C2
:1015B4000AAE029E000EE9EF0AF0010E81DDE9EFAA
:1015C4000AF0020EBDDDE9EF0AF0040E6CDD120034
:020000040030CA
:0E000000240E3D1EFF8181FF0FC00FE00F4058
:00000001FF
