:1000000015EF08F00000000036EF08F000000000D7
:0A0010000000000000000000F3D71C
:0E10000015EF08F000EF00F036EF08F01200D8
:10100E000900F5CFE6FF0006FBE10106F9E112004B
:10102A00926A936A010E946E806A816A826A010EDC
:10103A00D56E150ED76EA00ED66EE00EF26ED09E4D
:10104A00D58E82741F0E0B6E710E0C6E1E0E0D6EF7
:10105A000D2EFED70C2EFCD70B2EFAD70000F1D797
:02106A00FFD7AE
:10106C00F2A406D0D59EF294D76AD66A8272D58E37
:02107C00110061
:020000040030CA
:0E000000240E3D1EFF8181FF0FC00FE00F4058
:00000001FF
