:1000000000EF08F00000000053EF08F000000000CF
:0A0010000000000000000000F3D71C
:10100000926A936A010E946E806A816A826A3D0ECA
:101010000B6EE10E0C6E3F0E0D6E0D2EFED70C2EDC
:10102000FCD70B2EFAD700000000156A166A800E56
:101030001618006E800E005C02E1050E155C11E2D0
:1010400082741F0E0B6E710E0C6E1E0E0D6E0D2E29
:10105000FED70C2EFCD70B2EFAD70000154A162A05
:10106000E6D78294070E0B6E170E0C6E6A0E0D6E8D
:101070000D2EFED70C2EFCD70B2EFAD70000010E3A
:10108000D56E150ED76EA00ED66EE00EF26ED09E07
:06109000D58EFFD7FFD74B
:101096000900F5CFE6FF0006FBE10106F9E11200C3
:1010A600F2A408D0D59EF294150ED76EA00ED66E79
:0610B6008272D58E1100CC
:020000040030CA
:0E000000240E3D1EFF8181FF0FC00FE00F4058
:00000001FF
