:1000000000EF08F00000000000EF00F0000000002A
:0A0010000000000000000000F3D71C
:10100000926A936A010E946E0F0EC16E806A816AB5
:10101000826A156A166A800E006E800E1618005CD1
:1010200002E11550B40814E315C017F016C018F00B
:101030003CD8020E0B6E380E0C6EAD0E0D6E0D2EE2
:10104000FED70C2EFCD70B2EFAD7154A162AE3D75B
:10105000B40E156E000E166E800E1618006E800E01
:10106000005C02E1000E155C16E315C017F016C017
:1010700018F01BD8020E0B6E380E0C6EAD0E0D6EF6
:101080000D2EFED70C2EFCD70B2EFAD7010E155EB7
:0A109000000E165AE1D7BDD7FFD7B6
:10109A000900F5CFE6FF0006FBE10106F9E11200BF
:1010AA00800E006E800E1818005C02E117500008CE
:1010BA0002E3176A186A800E1818006E800E005C28
:1010CA0002E1B40E175C04E3B40E176E000E186E3C
:1010DA008282100E0C6E940E0D6E0D2EFED70C2E03
:1010EA00FCD70000016A026A800E1818006E800E92
:1010FA000218005C02E10150175C09E3170E0D6E3D
:10110A000D2EFED700000000014A022AEDD7829276
:02111A001200C1
:020000040030CA
:0E000000240E3D1EFF8181FF0FC00FE00F4058
:00000001FF
