:1000000000EF08F00000000000EF00F0000000002A
:100010000000000000000000F3D7FFFFFFFFFFFF1C
:10002000FFFFFFFFFFFFFFFFFFFFFFFFFFFFFFFFE0
:10003000FFFFFFFFFFFFFFFFFFFFFFFFFFFFFFFFD0
:10004000FFFFFFFFFFFFFFFFFFFFFFFFFFFFFFFFC0
:10005000FFFFFFFFFFFFFFFFFFFFFFFFFFFFFFFFB0
:10100000946A82928294CA90CA92CA90CA92770EC7
:10101000CB6EFDD800D9CA90CA92CA90CA92770EF8
:10102000CB6EFED8EFD81F0E0B6E710E0C6E1E0E1F
:101030000D6E0D2EFED70C2EFCD70B2EFAD700000E
:10104000156A15C016F06ED89C0E0C6ED70E0D6E7C
:101050000D2EFED70C2EFCD71550FF0A02E0152AE4
:10106000F0D7156A15C016F095D89C0E0C6ED70EE9
:101070000D6E0D2EFED70C2EFCD71550FF0A02E088
:10108000152AF0D7FF0E156E15C016F04BD89C0E22
:101090000C6ED70E0D6E0D2EFED70C2EFCD71550F4
:1010A000000A03E0FF0E1526EFD7FF0E156E15C0E0
:1010B00016F070D89C0E0C6ED70E0D6E0D2EFED74E
:1010C0000C2EFCD71550000A03E0FF0E1526EFD7B3
:1010D000B7D7FFD70B6A0A6A096A00500402F4CF37
:1010E00009F0F3CF08F001500502F4CF0BF0F3CF75
:1010F0000AF000500502F3500926F4500A22E86A6B
:101100000B2201500402F3500926F4500A22E86A27
:101110000B2208C000F009C001F00AC002F00BC0A9
:1011200003F01200010E006E000E016ECB5000267F
:10113000D8B0012A16C004F0000E056ECBDF060EF3
:10114000026E00C004F001C005F0025005E0053257
:101150000432059EFF0FFAD7040E016E04C000F0A2
:10116000015004E000360090FF0FFBD7300E001452
:10117000036E04C000F005C001F001320032019E90
:1011800001320032019E00C0BEFF0F0EBD1603509B
:10119000BD121200010E006E000E016ECB50002633
:1011A000D8B0012A16C004F0000E056E93DF060EBB
:1011B000026E00C004F001C005F0025005E00532E7
:1011C0000432059EFF0FFAD7040E016E04C000F032
:1011D000015004E000360090FF0FFBD7300E0014E2
:1011E000036E04C000F005C001F001320032019E20
:1011F00001320032019E00C0BBFF0F0EBA16035031
:10120000BA1212009492CA840C0EBA121200BE6A6C
:10121000BD98BD9A12009494CA840C0EBD1212009F
:10122000BB6ABA98BA9A1200FFFFFFFFFFFFFFFFE9
:020000040030CA
:0E000000240E3D1EFF8181FF0FC00FE00F4058
:00000001FF
