:1000000015EF08F0000000001EEF0BF000000000EC
:0C00100000000000000000003DEF0BF0BD
:1010000015EF08F000EF00F01EEF0BF000EF00F01E
:0E10100000EF00F000EF00F03DEF0BF01200DB
:10102A00926A010E936E010E946E0F0EC16E806A63
:10103A00816A826A800E1F6E0F0E206E216A0BDA99
:10104A00700E1F6E030E206EE80E216E030E226EC6
:10105A0022DA1F0E0B6E710E0C6E1E0E0D6E0D2E09
:10106A00FED70C2EFCD70B2EFAD7000082841F0E57
:10107A000B6E710E0C6E1E0E0D6E0D2EFED70C2E03
:10108A00FCD70B2EFAD700008294900EF26EF18CE8
:10109A001F0E0B6E710E0C6E1E0E0D6E0D2EFED7F0
:1010AA000C2EFCD70B2EFAD700008274F1D7FFD78B
:1010BA00800E006EBB0E016E000E026E036E1200F1
:1010CA000B6A0A6A096A086A0E6A03340836045007
:1010DA00085E0550D8A0053C095E0650D8A0063C1B
:1010EA000A5E0750D8A0073C0B5EE86AD8A0010E3A
:1010FA000E5E0336070E0C6E0334083609360A36BE
:10110A000B360E36045003A012D0085E0550D8A044
:10111A00053C095E0650D8A0063C0A5E0750D8A0D6
:10112A00073C0B5EE86AD8A0010E0E5E11D00826B5
:10113A000550D8B0053C09260650D8B0063C0A2608
:10114A000750D8B0073C0B26E86AD8B0010E0E2625
:10115A0003360C2ED1D70234083609360A360B3636
:10116A000E36045003A012D0085E0550D8A0053CE4
:10117A00095E0650D8A0063C0A5E0750D8A0073C74
:10118A000B5EE86AD8A0010E0E5E11D00826055043
:10119A00D8B0053C09260650D8B0063C0A260750A6
:1011AA00D8B0073C0B26E86AD8B0010E0E260236E4
:1011BA00070E0C6E0234083609360A360B360E361E
:1011CA00045002A012D0085E0550D8A0053C095E62
:1011DA000650D8A0063C0A5E0750D8A0073C0B5E12
:1011EA00E86AD8A0010E0E5E11D008260550D8B0C4
:1011FA00053C09260650D8B0063C0A260750D8B046
:10120A00073C0B26E86AD8B0010E0E2602360C2ED1
:10121A00D1D70134083609360A360B360E36045051
:10122A0002A012D0085E0550D8A0053C095E0650FF
:10123A00D8A0063C0A5E0750D8A0073C0B5EE86AB5
:10124A00D8A0010E0E5E11D008260550D8B0053C74
:10125A0009260650D8B0063C0A260750D8B0073CE3
:10126A000B26E86AD8B0010E0E260136070E0C6E60
:10127A000134083609360A360B360E36045001A0F8
:10128A0012D0085E0550D8A0053C095E0650D8A0C9
:10129A00063C0A5E0750D8A0073C0B5EE86AD8A055
:1012AA00010E0E5E11D008260550D8B0053C09265D
:1012BA000650D8B0063C0A260750D8B0073C0B2681
:1012CA00E86AD8B0010E0E2601360C2ED1D70034AA
:1012DA00083609360A360B360E36045001A012D0EB
:1012EA00085E0550D8A0053C095E0650D8A0063C09
:1012FA000A5E0750D8A0073C0B5EE86AD8A0010E28
:10130A000E5E11D008260550D8B0053C09260650B5
:10131A00D8B0063C0A260750D8B0073C0B26E86A24
:10132A00D8B0010E0E260036070E0C6E00340836B1
:10133A0009360A360B360E36045000A012D0085E63
:10134A000550D8A0053C095E0650D8A0063C0A5EA6
:10135A000750D8A0073C0B5EE86AD8A0010E0E5EC3
:10136A0011D008260550D8B0053C09260650D8B039
:10137A00063C0A260750D8B0073C0B26E86AD8B0C4
:10138A00010E0E2600360C2ED1D700B00ED0045016
:10139A0008260550D8B0053C09260650D8B0063CA8
:0C13AA000A260750D8B0073C0B261200A2
:1013B6002B062B062BC001F02B060150000803E27A
:1013C60000000000F7D70000000000000000000049
:0213D600120003
:1013D800086A096A100E0C6E013408360936045082
:1013E800085E0550D8A0053C095ED8B007D0045067
:1013F80008260550D8B0053C0926D8900036013695
:061408000C2EEAD71200D1
:10140E00220E0C6E086A096A0A6A0B6A0C06D8B4B8
:10141E001FD0D8900B320A32093208320332023210
:10142E0001320032D8A0F2D70C06D8B409D004503D
:10143E0008260550092206500A2207500B22EAD729
:10144E00045008260550092206500A2207500B2286
:02145E0012007A
:101460001FC01BF020C01CF021C001F0010E006E57
:10147000015004E000360090FF0FFBD700C01EF0C3
:10148000001E00C01DF0120E1F24E96E000E202069
:10149000EA6E0050EF16120EE95E0050EF161200D1
:1014A0000CDEE80E046E030E056E000E066E076E6F
:1014B000AEDF00C027F001C028F002C029F003C051
:1014C0002AF01FC004F020C005F0000E066E076E63
:1014D000FCDD00C027F001C028F002C029F003C0E5
:1014E0002AF000C005F001C006F002C007F003C0FA
:1014F00008F00832073206320532089E08320732F9
:1015000006320532089E05C000F006C001F007C093
:1015100002F008C003F00332023201320032039EAF
:1015200000C023F001C024F0C8DD21C004F022C0B7
:1015300005F0000E066E076E6ADF23C009F024C0B6
:101540000AF0000E0B6E0C6E030E086E09C004F05C
:101550000AC005F00BC006F00CC007F0085007E009
:1015600004360490053606360736FF0FF8D7ADDD92
:1015700000C027F001C028F002C029F003C02AF003
:101580000A0E046E000E056E23C000F024C001F0A8
:1015900023DF00C023F001C024F0000E015C02E153
:1015A000030E005C01E241D01BC0E9FF1CC0EAFF52
:1015B0002A50000808E12950000805E128500008D9
:1015C00002E1275000082FE21E50EF1224520DE0D6
:1015D000256A266A000E265C02E12450255C05E29D
:1015E0002B6AE9DE254A262AF5D723C02BF0E3DE55
:1015F0001D50EF1624520DE0256A266A000E265C67
:1016000002E12450255C05E22B6AD5DE254A262A14
:10161000F5D723C02BF0CFDE010E275E000E285A2F
:0C162000295A2A5AC5D71D50EF16120097
:10162C000900F5CFE6FF0006FBE10106F9E1120027
:10163C000BC01AF00CC019F00DC018F0F2A210D0AB
:10164C0082720D0E0B6E2D0E0C6ED70E0D6E0D2EB6
:10165C00FED70C2EFCD70B2EFAD700000000F2920E
:0E166C001AC00BF019C00CF018C00DF01100E0
:10167A00156ED8CF16F0E0CF17F01750E06E16505F
:08168A00D86E153A1538100066
:020000040030CA
:0E000000240E3D1EFF8181FF0FC00FE00F4058
:00000001FF
