:1000000000EF08F00000000000EF00F0000000002A
:0A0010000000000000000000F3D71C
:1010000007EC0DF0926A010E936E010E946E0F0EB6
:10101000C16E806A816A826AB886040EB06EE10E83
:10102000AF6EAC8403DA070E0B6E170E0C6E6A0EF1
:101030000D6E0D2EFED70C2EFCD70B2EFAD700000E
:1010400020DA00C01AF001C01BF002C01CF003C07F
:101050001DF000C06AF001C06BF002C06CF003C06C
:101060006DF0380E6E6F000E6F6F74DA380E6A6FA7
:10107000000E6B6F150E6C6F000E6D6FB3EC0CF005
:10108000380E6A6F000E6B6FE3EC0CF00A0E786F8F
:101090009ED90D0E0001786F9AD93D0E0B6EE10EB0
:1010A0000C6E3F0E0D6E0D2EFED70C2EFCD70B2EA8
:0A10B000FAD700000000C4D7FFD7F4
:0810BA000AAE029E000E1200B6
:1010C2000B840BAE6CEF08F0010E036E026A016A2C
:0A10D200006A0A360232FF0E120017
:0E10DC00026A016A006A086A036A000E1200C6
:1010EA000C6A0E6A0250D8A48EEF08F001C002F012
:1010FA0000C001F0006A0E860250D8A48EEF08F0F4
:10110A0001C002F0016A0E960E880250D8B4A0EF10
:10111A0008F00E50035ED8A4D8A0A5EF08F0D89026
:10112A0002BEAAEF08F0003601360236032E95EF0A
:10113A0008F0A5EF08F0010E0C6ECBDFADEF08F05A
:10114A00020E0C6EB9DFADEF08F0040E0C6EB0DFC4
:02115A00120081
:10115C000B820BAEB8EF08F00368026801680068F8
:08116C000A360232FF0E1200E8
:10117400086A080E0C6E003408360450085ED8B0B5
:0E11840002D00826D89000360C2EF5D71200A7
:101192000A6A0350D8A40A800750D8A40A820A50C7
:1011A200D8B42CEF09F0030AD8B4E5EF08F00AB07E
:1011B200E0EF08F006AE2AEF09F028EF09F002AEE0
:1011C20028EF09F02AEF09F00250800B0A6E029E06
:1011D2000650800B069E0A18D8B4F6EF08F00A50A3
:1011E200D8B428EF09F02AEF09F00750035CD8B40D
:1011F20000EF09F0D8A01CEF09F022EF09F0065029
:10120200025CD8B40AEF09F0D8A01CEF09F022EF73
:1012120009F00550015CD8B414EF09F0D8A01CEF16
:1012220009F022EF09F00450005CD8B42CEF09F069
:10123200D8B022EF09F00A52D8B42AEF09F028EF09
:1012420009F00A52D8B428EF09F02AEF09F0D88041
:0E1252001200D8901200D880D884120012002A
:1012600078C004F079C005F004C002F005C003F0B6
:10127000044A052A7AC000F07BC001F000017A4BD5
:101280007B2B00C0E9FF01C0EAFF02C0E1FF03C001
:10129000E2FFEECFE6FF02C0E9FF03C0EAFFEE5235
:0E12A00001E0E2D778C000F079C001F0120042
:1012AE00086A096A000E07620364DCEF09F0025057
:1012BE0006180A6E075003267E0ED8A06DEF09F0B1
:1012CE00035ED8B0E0EF09F071EF09F0035ED8A02D
:1012DE00E4EF09F0028E068E02C00EF001C00BF094
:1012EE0000C00DF000500402F4CF0CF001500502C6
:1012FE00F4CF00F0F3CF08F00402F3500C26F450B4
:10130E000822000E00220D500502F3500C26F45058
:10131E000822000E002202500402F3500826F45058
:10132E00002202500502016A000E0122F35000262F
:10133E00F45001220D500602F3500826F4500022FC
:10134E00026A000E012202220B500602F350002602
:10135E00F4500122000E02220E500602F350012616
:10136E00F450022202BEC4EF09F0083600360136F0
:10137E0002360306D8B4E4EF09F0D7EF09F0D880AF
:10138E00800E08640030000E002201220222D8A036
:10139E00D7EF09F0023201320032034AE0EF09F0D2
:1013AE000AAE029E000EE6EF09F0010E90DEE6EFA9
:1013BE0009F0020ECCDEE6EF09F0040E7BDE120021
:0E13CE00ACB202D00000FCD778C0ADFF120018
:1013DC0000C008F00150006E016A026A036A0B6AD1
:1013EC000C6A016A026A036A960E036E0A6A00AE00
:1013FC0006EF0AF0081E001E082AD8B4002A0A8E2E
:10140C0000C001F008C000F0086A026A68DE120031
:10141C000900F5CFE6FF0006FBE10106F9E1120039
:10142C00CE0E306E130E316E780E326E000E336EA1
:10143C00FF0E346EFF0E356E000E366E000E376EDC
:10144C00FF0E286EFF0E296E000E2A6E000E2B6EFC
:10145C00FF0E2C6EFF0E2D6E000E2E6E000E2F6EDC
:10146C00AC8A900EAB6E948E949C9EAA03D0AECF99
:06147C0000F0FBD7120096
:1014820000016A6B6B6B6C6B6D6B6E6B6F6BB00E8E
:10149200706F360E716F8192130E0D6E0D2EFED788
:1014A200000000008182270E0D6E0D2EFED7000077
:1014B2000000819281B001D0FDD781A013D0800EAF
:1014C2007119006E800E6F19005C02E16E51705D41
:1014D20009E3030E0D6E0D2EFED7000000006E4BC9
:1014E2006F2BEBD7800E6F19006E800E7119005CA6
:1014F20002E170516E5D05E36A6B6B6B6C6B6D6B39
:101502001FD06EC000F06FC001F067DF710E046E75
:101512003D0E056E0A0E066E7F0E076EC7DE120EB8
:10152200046EBD0E056E0C0E066E7A0E076EBEDEE2
:1015320000C06AF001C06BF002C06CF003C06DF035
:101542006AC000F06BC001F06CC002F06DC003F025
:02155200120085
:101554000001766B776B6AC072F06BC073F06CC07D
:1015640074F06DC075F07551FF0A08E17451FF0AFB
:1015740005E17351FF0A02E17251FF0A0CE16EC0EA
:1015840078F06FC079F01E0E7A6F000E7B6F66DE06
:10159400030E006EE5D1010E706F74AF0ED0800E95
:1015A4007419006E00C074F0702B6EC0E1FF6FC040
:1015B400E2FF2D0EE66E6E4B6F2B000E006E75195A
:1015C40008E10050741905E10050731902E17251E9
:1015D400000A0BE16EC078F06FC079F0260E7A6FC6
:1015E400000E7B6F3BDE006ABBD17551FF0A08E138
:1015F4007451000A05E17351000A02E17251000AB4
:101604000CE16EC078F06FC079F0220E7A6F000E94
:101614007B6F24DE70C000F0A3D1000E046E000EB8
:10162400056E000E066E7F0E076E72C000F073C06A
:1016340001F074C002F075C003F0A9DD010ED8B04A
:10164400000E006E00521BE072C000F073C001F087
:1016540074C002F075C003F0000E046E000E056E37
:10166400200E066E820E076E20DE00C072F001C0EE
:1016740073F002C074F003C075F07707CED7000E84
:10168400046E000E056E200E066E820E076E72C08A
:1016940000F073C001F074C002F075C003F077DD90
:1016A400000ED8B0010E006E00521BE072C000F0B4
:1016B40073C001F074C002F075C003F0CD0E046E67
:1016C400CC0E056E4C0E066E7B0E076EEEDD00C072
:1016D40072F001C073F002C074F003C075F0772B90
:1016E400CED7FF0E7215086EFF0E7315096E7F0EAE
:1016F40074150A6E000E75150B6E08C004F009C04F
:1017040005F00AC006F00BC007F004360490053655
:1017140006360736000E7215006E000E7315016E44
:10172400000E7415026EFF0E7515036E00C072F084
:1017340001C073F002C074F003C075F0045072115C
:10174400006E05507311016E06507411026E07503D
:101754007511036E00C072F001C073F002C074F022
:1017640003C075F07F0E755D006E00C071F0010E50
:10177400756F00C004F072C000F073C001F074C053
:1017840002F075C003F0045007E000360090013603
:1017940002360336FF0FF8D700C072F001C073F0B1
:1017A40002C074F003C075F06EC0E1FF6FC0E2FFC9
:1017B4007551300FE66E6E4B6F2B800E7719006EED
:1017C400800E010A005C08E3800E060A006E800E9B
:1017D4007719005C01E30AD06EC0E1FF6FC0E2FF3D
:1017E4002E0EE66E6E4B6F2B010E766F060E716F2A
:1017F4007151000A54E0756B72C000F073C001F0BF
:1018040074C002F075C003F0003600900136023651
:101814000336003600900136023603367251002634
:1018240073510122745102227551032200C072F0D7
:1018340001C073F002C074F003C075F072C000F010
:1018440073C001F074C002F075C003F0003600905C
:1018540001360236033600C072F001C073F002C0D4
:1018640074F003C075F06EC0E1FF6FC0E2FF755104
:10187400300FE66E6E4B6F2B7651000A0EE1770740
:101884007751000A0AE16EC0E1FF6FC0E2FF2E0E3D
:10189400E66E6E4B6F2B010E766F7107A9D7FF0EA4
:1018A4006E25E96EFF0E6F21EA6EEE50300A05E1F7
:1018B400010E6E5F000E6F5BF2D7FF0E6E25E96EB0
:1018C400FF0E6F21EA6EEE502E0A04E1010E6E5FE8
:1018D400000E6F5B7751000A3DE06EC0E1FF6FC000
:1018E400E2FF650EE66E6E4B6F2B800E7719006E6D
:1018F400800E000A005C0BE26EC0E1FF6FC0E2FFE5
:101904002D0EE66E6E4B6F2B77510008776F77C004
:1019140071F0775109080EE20A0E046E71C000F0EE
:1019240027DC6EC0E1FF6FC0E2FF0050300FE66EAF
:101934006E4B6F2B0A0E046E71C000F019DC08C0E8
:1019440000F06EC0E1FF6FC0E2FF0050300FE66EA2
:101954006E4B6F2B6EC0E1FF6FC0E2FFE66A006A58
:0219640012006F
:101966006AC004F06BC005F004C0E9FF05C0EAFFD9
:10197600EE5203E0044A052AF7D704C002F005C078
:1019860003F0044A052A6CC000F06DC001F00001A6
:101996006C4B6D2B00C0E9FF01C0EAFF02C0E1FFFE
:1019A60003C0E2FFEECFE6FF02C0E9FF03C0EAFF95
:1019B600EE5201E0E2D76AC000F06BC001F01200FF
:1019C60000016D6B6AC0E9FF6BC0EAFFEECF6CF0F9
:1019D6006C51000A0EE06CC078F0F6DC00016D2B4D
:1019E6006D516A25E96E000E6B21EA6EEECF6CF042
:0419F600EFD7120015
:101A0E0010EE15F0130E006E010E016EFA0EF66E4C
:0E1A1E00190EF76E000EF86E0EEC0AF01200B4
:0519FA0020636D2E00CA
:0419FF0000000000E4
:041A03004E614E00E2
:041A0700494E4600FE
:021A0B003000A9
:020000040030CA
:0E000000240E3D1EFF8181FF0FC00FE00F4058
:00000001FF
